:100000000C9433000C94C2040C94C2040C94C204EB
:100010000C94C2040C94C2040C94C2040C94C20448
:100020000C94C2040C94C2040C94C2040C94C20438
:100030000C94C2040C94C2040C94C2040C94C20428
:100040000C94C2040C94C2040C94C2040C94C20418
:100050000C94C204006000C48000C400D900098868
:1000600000D900DC800011241FBECFE5D4E0DEBF44
:10007000CDBFE4E5F0E040E017C0B591A591359122
:100080002591059107FD0CC095918591EF01F92F00
:10009000E82F05900D92A217B307D9F7FE0104C00F
:1000A0001D92A217B307E1F7E536F40731F70E9476
:0A00B000E4000C945B00F894FFCF0D
:1000BA0020456E746572204E6577205061737320F7
:1000CA000020436F6E6669726D2050617373776F9B
:1000DA00726420002020202020446F6E652020209A
:1000EA00202000204E6F6E204964656E746963613A
:1000FA006C200020456E7465722050617373776FAF
:10010A00726400446F6F722077696C6C206F70653F
:10011A006E002A2A2A2057656C636F6D65202A2A89
:10012A002A00436F7272656374004E6F74205661C1
:10013A006C69640052652D656E7465722050617336
:10014A0073776F72640063757272656E74205061A2
:10015A007373776F726400466F72204775657374A4
:10016A002D2D2D3E203100466F722041646D696E3F
:10017A002D2D2D3E20320057656C636F6D652074FE
:10018A006F207468652020002020204775657374ED
:10019A00204D6F64652020200020202041646D6975
:1001AA006E204D6F64652020200053746F72656461
:0E01BA00005375636365737366756C6C790032
:1001C8000E94B9040E94A5040E9488048898909A05
:1001D80061E671E080E00E94330460E070E081E055
:1001E80090E00E944E0461E771E080E00E943304D1
:1001F8002FEF80E792E0215080409040E1F700C067
:1002080000000E94B104813019F0823011F141C020
:1002180081E08093DB000E94B50461E871E080E032
:100228000E94330460E070E081E090E00E944E0498
:1002380062E971E080E00E9433042FEF80E792E0EA
:10024800215080409040E1F700C000000E94B504B2
:1002580020C082E08093DB000E94B50461E871E071
:1002680080E00E94330460E070E081E090E00E944A
:100278004E0463EA71E080E00E9433042FEF80E7C8
:1002880092E0215080409040E1F700C000000E94B9
:10029800B5048091DB00823011F50E9493020E9420
:1002A80077030E94B50464EB71E080E00E94330498
:1002B80060E070E081E090E00E944E046BEB71E03A
:1002C80080E00E9433042FEF80E792E021508040C5
:1002D8009040E1F700C000000E94420302C00E9463
:0402E8004203FFCFFF
:1002EC00CF93DF93EC010E94B5048091D80081304C
:1002FC0031F46AEB70E080E00E94330405C06BECD3
:10030C0070E080E00E9433048FE39CE90197F1F7E1
:10031C0000C0000060E070E081E090E00E944E04BC
:10032C001092D9000E94B1048093DA008A3078F4DC
:10033C0090E00E94A7038091D90091E0980F9093D0
:10034C00D9009091DA00FE01E80FF11D90838091A5
:10035C00DA00833239F78091D900FE01E80FF11DE4
:10036C001082CE010E9465048091D800813039F44E
:10037C0082E08093D80088E890E00E94760181E0CA
:10038C008093D80028E830E040E864EC70E080E826
:10039C000E94D603892B41F40E94B5046EED70E0E7
:1003AC0080E00E94330419C00E94B5046DEE70E029
:1003BC0080E00E9433049FEF20E782E091502040C0
:1003CC008040E1F700C0000081E08093D8000E94DB
:1003DC00B50484EC90E00E947601DF91CF910895F2
:1003EC00CF93DF93EC019B0140E8BC0180E80E94B5
:1003FC00D603892B89F40E94B5046CE271E080E08D
:10040C000E9433042FE788E391E021508040904014
:10041C00E1F700C0000034C0CE010E9478040E94B5
:10042C00B50464E371E080E00E94330460E070E0A6
:10043C0081E090E00E944E046EE371E080E00E9447
:10044C0033042FEF80E792E0215080409040E1F799
:10045C0000C000000E94B5046DEF70E080E00E94C7
:10046C00330460E070E081E090E00E944E048091E3
:10047C00DB00813019F40E94D10202C00E94930269
:06048C00DF91CF910895FD
:1004920012BE93B7986493BF93B7906293BF93B71A
:1004A2009F7E93BF8CBFBB9A68307105F9F038F418
:1004B2006115710581F06130710589F0089561154A
:1004C20081E0780709F1611584E0780721F1603451
:1004D200710539F512C083B7887F83BF089583B74A
:1004E200897F83BF83B7816083BF089583B78A7F83
:1004F20083BF83B7826083BF089583B78B7F83BF37
:1005020083B7836083BF089583B78C7F83BF83B72C
:10051200846083BF089583B78D7F83BF83B785606F
:0405220083BF0895F6
:100526001092D9000E94B50460E571E080E00E9457
:10053600330460E070E081E090E00E944E040E9487
:10054600B1048093DA008A3080F48AE290E00E9457
:100556001504E091D90081E08E0F8093D900F0E078
:10056600E456FF4F8091DA0080838091DA0083326F
:1005760031F7E091D900F0E0E456FF4F10828CE9A4
:1005860090E00E94650464EC70E08CE990E00E94C3
:0C059600F60184EC90E00E9476010895CC
:1005A2001092D9000E94B5046DEF70E080E00E94C5
:1005B200330460E070E081E090E00E944E040E940B
:1005C200B1048093DA008A3080F48AE290E00E94DB
:1005D2001504E091D90081E08E0F8093D900F0E0FC
:1005E200E456FF4F8091DA0080838091DA008332F3
:1005F20031F7E091D900F0E0E456FF4F10828CE928
:1006020090E00E94650464EC70E08CE990E00E9446
:04061200F601089550
:100616001F93CF93DF93EC01162F0E94AB040E9429
:10062600BF04883009F5CE0188279770880F892F77
:10063600881F990B9195806A0E949E040E94BF04B0
:100646008831A1F48C2F0E949E040E94BF04883238
:1006560079F4812F0E949E040E94BF04883251F4CF
:100666000E94BC0481E007C080E005C080E003C0B2
:0E06760080E001C080E0DF91CF911F910895D8
:1006840081E08093DB000E94D1020E94B5046DE0FA
:1006940071E080E00E9433042FEF80E792E0215064
:1006A40080409040E1F700C0000068E070E08EE711
:1006B40090E00E9449022FE785EB91E021508040B1
:1006C4009040E1F700C000000E94B5046CE171E0C5
:1006D40080E00E9433042FEF80E792E021508040B5
:0A06E4009040E1F700C00000089507
:1006EE00CF931092D9006091C4006623D9F090E0A8
:1006FE0081E19F5F9093D900C1E0C80F90E00E9406
:10070E000B038FE19EE40197F1F700C0000090917A
:10071E00D900E92FF0E0EC53FF4F60818C2F61116F
:10072E00E8CF01C0C1E160E08C2F90E00E940B0386
:10073E008FE19EE40197F1F700C00000CF9108957C
:10074E00CF93DF93CDB7DEB760970FB6F894DEBFC9
:10075E000FBECDBF8823A1F04DEC849F912D1124A7
:10076E00969596959695392F330F232F220F220F9C
:10077E00230F821B20E3280F892F9111EECF29839F
:10078E00BE016F5F7F4F80E80E94330460960FB604
:0E079E00F894DEBF0FBECDBFDF91CF9108955E
:1007AC00CF92DF92EF926B01E82EF6018491E7FC79
:1007BC008081F901549147FD508185130BC088232A
:1007CC0041F08FEFC81AD80AE80A2F5F3F4F4F4FFE
:1007DC00ECCF582F90E0851B9109EF90DF90CF90D4
:0207EC0008956E
:1007EE00C098C198E9EFF0E03197F1F700C0000032
:1007FE00C29AE9EFF0E03197F1F700C000008BBB31
:10080E0089EF90E00197F1F700C00000C298E9EF80
:0C081E00F0E03197F1F700C000000895F1
:10082A00C09AC198E9EFF0E03197F1F700C00000F3
:10083A00C29AE9EFF0E03197F1F700C000008BBBF4
:10084A0089EF90E00197F1F700C00000C298E9EF44
:0C085A00F0E03197F1F700C000000895B5
:10086600CF92DF92EF926B01E82EFB018491E7FCB9
:100876008081882361F00E9415048FEFC81AD80A78
:10088600E80AF6018491E7FC80818111F4CFEF90AC
:06089600DF90CF900895F1
:10089C00813041F028F0823041F0833049F00AC0B9
:1008AC00962F08C090E4960F05C090E1960F02C0F9
:0E08BC0090E5960F892F80680E94F70308953B
:1008CA00DC019C91992361F0FD0120E0905D908309
:1008DA002F5FFD01E20FF11D90819111F7CF01C049
:0608EA00FD0110820895DB
:1008F000DC018C91882359F0FD0190E080E39F5F3B
:100900008083FD01E90FF11D20812111F8CF0895A9
:1009100087B3876087BB8FEF8ABB88E30E94F703AA
:0E0920008CE00E94F70381E00E94F703089527
:0E092E0082E080B911B882B984E086BF0895D6
:0E093C0083B984E886BF06B607FEFDCF089596
:0C094A00BE9A87B38F7487BB6E9A089525
:0C09560084EA86BF06B607FEFDCF0895B8
:08096200779BFECF8FB10895D1
:08096A0081E00E94F7030895EB
:060972000E9497040895A5
:0609780084E986BF08952A
:06097E0081B1887F08959D
:040984000C940000CF
:100988003132333400000000000000000000000095
:04099800000000005B
:01099C000159
:00000001FF
